:020000040000FA
:0600000095EF16F012005E
:020006001200E6
:0600080067EF04F0120096
:02000E000200EE
:10001000782D0000DE01000010000000762D0000A9
:08002000F801000002000000DD
:08002800520ED36ED3A4FED7E3
:1000300012000F01070E386F896A9268396B8A6A5D
:10004000F00E936E3A6B8B6AE00E946E3B6B8C6A8B
:1000500095683C6B8D6A96681200F2943C0ED76EE0
:10006000B00ED66E1200900ED56E2DEF00F0190E68
:10007000AF6E400EB86E900EAB6E260EAC6E1200D8
:100080000C0E756E400E706E900E716E260E726EB6
:100090001200010EC26EC16AA90EC06E1200D9CF45
:1000A000E6FFE1CFD9FFFE0EDB501F0BF36EF346E8
:1000B000F346830EC214F310C26EC282C2B2FED7E0
:1000C000C3CFF3FFC4CFF4FF00D0E552E7CFD9FF91
:1000D0001200E00EF26ED09E1200A6DFAADFC3DF90
:1000E000C6DFCEDFF6DF49EF00F0D9CFE6FFE1CF84
:1000F000D9FF020EE126DE6ADD6ADE6ADD6ADECF46
:1001000014F0DDCF15F0D890155004E60A0E145CFB
:10011000000E155820E2FD0EDBCFE9FFFE0EDBCF0F
:10012000EAFFE9CF14F0EACF15F0020E086E096A73
:10013000DECF0DF0DDCF0EF0D0EC12F0145006241F
:10014000E96E15500720EA6EEE6AED6ADF2A010EAD
:1001500001E3DB2AD4D7FD0EDBCFE9FFFE0EDBCFB8
:10016000EAFF140EEB6A150EEB6AFD0EDBCFE9FF1A
:10017000FE0EDBCFEAFF160EE926000EEA22FB0E8A
:10018000DBCFEEFFFC0EDBCFEDFFFD0EDBCFE9FF9B
:10019000FE0EDBCFEAFF180EE926000EEA22F90E6A
:1001A000DBCFEEFFFA0EDBCFEDFFFD0EDBCFE9FF7D
:1001B000FE0EDBCFEAFF1A0EEB6A1B0EEB6AFD0E9A
:1001C000DBCFE9FFFE0EDBCFEAFF1C0EE926000EB7
:1001D000EA22EF6A020EE15C02E2E16AE552E16EB8
:1001E000E552E7CFD9FF1200D9CFE6FFE1CFD9FF23
:1001F000FD0EDBCFE9FFFE0EDBCFEAFFEF6AFD0E5F
:10020000DBCFE9FFFE0EDBCFEAFFEFCFE9FFEA6AC3
:10021000E9BEEA68E20EE926010EEA22EF50E66E38
:10022000FD0EDBCFE9FFFE0EDBCFEAFFEE52E5521B
:10023000E750EF6EFD0EDBCFE9FFFE0EDBCFEAFFEE
:10024000020EEB6A030EEB6AFD0EDBCFE9FFFE0E3A
:10025000DBCFEAFF040EEB6A050EEB6AFD0EDBCF87
:10026000E9FFFE0EDBCFEAFF060EE926000EEA22CA
:10027000EF6AE552E7CFD9FF1200D9CFE6FFE1CF11
:10028000D9FFFD0EDBCFE9FFFE0EDBCFEAFFEF6A01
:10029000FD0EDBCFE9FFFE0EDBCFEAFFEE52EF6A89
:1002A000FD0EDBCFE9FFFE0EDBCFEAFF020EEB6AAD
:1002B000030EEB6AFD0EDBCFE9FFFE0EDBCFEAFF9C
:1002C000040EEB6A050EEB6AE552E7CFD9FF120088
:1002D0000101575102E0000E01D0010E576F1200CC
:1002E0000101582B030EE76E5819E8AE02D0E7342F
:1002F00002D0E750585D01E3586B120001015751DD
:1003000019E058C1E9FFEA6AE9BEEA681D0EEA028F
:10031000F3CFEAFFE902F3CFE9FFF450EA26000E3B
:10032000E926010EEA22160EE926000EEA22EE2A3E
:10033000EF2218D058C1E9FFEA6AE9BEEA681D0E4B
:10034000EA02F3CFEAFFE902F3CFE9FFF450EA262D
:10035000000EE926010EEA22180EE926000EEA2216
:10036000EE2AEF2212000101575119E058C1E9FFAE
:10037000EA6AE9BEEA681D0EEA02F3CFEAFFE90283
:10038000F3CFE9FFF450EA26000EE926010EEA2237
:10039000160EE926000EEA22EE06EF5A18D058C1D2
:1003A000E9FFEA6AE9BEEA681D0EEA02F3CFEAFF56
:1003B000E902F3CFE9FFF450EA26000EE926010E28
:1003C000EA22180EE926000EEA22EE06EF5A120083
:1003D000D9CFE6FFE1CFD9FFE652DF6AFD0EDBCFD2
:1003E000E9FFFE0EDBCFEAFFEF500EE0FD0EDBCFA4
:1003F000E9FFFE0EDBCFEAFFEF50DF1AFD0EDB2A2E
:10040000FE0E01E3DB2AEAD7DF5000D0E552E552C9
:10041000E7CFD9FF1200C80E146E280E156E166AAB
:1004200014C0E6FF15C0E6FF16C0E6FF19EC15F094
:10043000E552E552E552C50E146E280E156E166A89
:1004400014C0E6FF15C0E6FF16C0E6FF19EC15F074
:10045000E552E552E55258C114F0156A14BE15680C
:1004600014C0E6FF15C0E6FFB90E166E280E176E13
:10047000186A16C0E6FF17C0E6FF18C0E6FF19ECC1
:1004800015F0196E050EE15E19500101575111E08A
:10049000AD0E146E280E156E166A14C0E6FF15C058
:1004A000E6FF16C0E6FF19EC15F0E552E552E552FD
:1004B00010D0A20E146E280E156E166A14C0E6FF38
:1004C00015C0E6FF16C0E6FF19EC15F0E552E5523F
:1004D000E5529E0E146E280E156E166A14C0E6FFC5
:1004E00015C0E6FF16C0E6FF19EC15F0E552E5521F
:1004F000E5524EC1E6FF4FC1E6FF31C1E6FF32C112
:10050000E6FF14C1E6FF15C1E6FF800E146E280E4B
:10051000156E166A14C0E6FF15C0E6FF16C0E6FFAA
:1005200019EC15F0176E090EE15E1750C50E146E2A
:10053000280E156E166A14C0E6FF15C0E6FF16C039
:10054000E6FF19EC15F0E552E552E55250C1E6FF21
:1005500051C1E6FF33C1E6FF34C1E6FF16C1E6FF35
:1005600017C1E6FF620E146E280E156E166A14C0CF
:10057000E6FF15C0E6FF16C0E6FF19EC15F0176E92
:10058000090EE15E1750C50E146E280E156E166A20
:1005900014C0E6FF15C0E6FF16C0E6FF19EC15F023
:1005A000E552E552E55252C1E6FF53C1E6FF35C1BF
:1005B000E6FF36C1E6FF18C1E6FF19C1E6FF450EAA
:1005C000146E280E156E166A14C0E6FF15C0E6FFFD
:1005D00016C0E6FF19EC15F0176E090EE15E175014
:1005E0009E0E146E280E156E166A14C0E6FF15C016
:1005F000E6FF16C0E6FF19EC15F0E552E552E552AC
:100600008BA411D0380E146E280E156E166A14C005
:10061000E6FF15C0E6FF16C0E6FF19EC15F0E5523F
:10062000E552E55210D02C0E146E280E156E166A87
:1006300014C0E6FF15C0E6FF16C0E6FF19EC15F082
:10064000E552E552E5528BA211D01E0E146E280E13
:10065000156E166A14C0E6FF15C0E6FF16C0E6FF69
:1006600019EC15F0E552E552E55210D0110E146E5A
:10067000280E156E166A14C0E6FF15C0E6FF16C0F8
:10068000E6FF19EC15F0E552E552E5528BA611D0C4
:10069000060E146E280E156E166A14C0E6FF15C0FD
:1006A000E6FF16C0E6FF19EC15F0E552E552E552FB
:1006B00010D0FC0E146E270E156E166A14C0E6FFDD
:1006C00015C0E6FF16C0E6FF19EC15F0E552E5523D
:1006D000E552C50E146E280E156E166A14C0E6FF9C
:1006E00015C0E6FF16C0E6FF19EC15F0E552E5521D
:1006F000E5528BA011D0ED0E146E270E156E166A02
:1007000014C0E6FF15C0E6FF16C0E6FF19EC15F0B1
:10071000E552E552E55210D0DF0E146E270E156E2D
:10072000166A14C0E6FF15C0E6FF16C0E6FF19EC16
:1007300015F0E552E552E5528BA811D0CE0E146E9D
:10074000270E156E166A14C0E6FF15C0E6FF16C028
:10075000E6FF19EC15F0E552E552E55210D0BE0E59
:10076000146E270E156E166A14C0E6FF15C0E6FF5C
:1007700016C0E6FF19EC15F0E552E552E5529E0E63
:10078000146E280E156E166A14C0E6FF15C0E6FF3B
:1007900016C0E6FF19EC15F0E552E552E552B90E28
:1007A000146E270E156E166A14C0E6FF15C0E6FF1C
:1007B00016C0E6FF19EC15F0E552E552E5529E0E23
:1007C000146E280E156E166A14C0E6FF15C0E6FFFB
:1007D00016C0E6FF19EC15F0E552E552E5525FC18F
:1007E000E6FF60C1E6FF61C1E6FF62C1E6FF970E6A
:1007F000146E270E156E166A14C0E6FF15C0E6FFCC
:1008000016C0E6FF19EC15F0176E070EE15E1750E3
:10081000C50E146E280E156E166A14C0E6FF15C0BC
:10082000E6FF16C0E6FF19EC15F0E552E552E55279
:100830005EC114F0156A14BE156814C0E6FF15C039
:10084000E6FF850E166E270E176E186A16C0E6FFB5
:1008500017C0E6FF18C0E6FF19EC15F0196E050E7B
:10086000E15E19509E0E146E280E156E166A14C0A5
:10087000E6FF15C0E6FF16C0E6FF19EC15F0E552DD
:10088000E552E5520101685121E0050E0101E76ED4
:10089000E119E8AE02D0E13503D0E750D880E15548
:1008A00015E3BA0EE66E010EE66E820E146E270E8A
:1008B000156E166A14C0E6FF15C0E6FF16C0E6FF07
:1008C00019EC15F0176E050EE15E17501200F2A438
:1008D0002ED02DEC00F00101EC2B010EDE6F0A0E84
:1008E000E76EEC19E8AE02D0E73402D0E750EC5DD9
:1008F00003E3010EDF6FEC6B010168050FE10101FD
:10090000DF050CE1050EE76EE119E8AE02D0E13536
:1009100003D0E750D880E15501E3E12B050E01013A
:10092000E15D05E1E16B010EE06F0101686BE00E36
:10093000F2121200D9CFE6FFE1CFD9FF0C0EE1266B
:10094000DE6ADD6A020EDB6A030EDB6A6DEC00F024
:100950000F0EE66EE66A230EE66EE66A000EE66E9F
:10096000010EE66E75EC00F0146E060EE15E14509A
:10097000230EE66EE66A410EE66EE66A1D0EE66E30
:10098000010EE66E75EC00F0146E060EE15E14507A
:100990008A0EE66E020EE66E780EE66E050EE66EC6
:1009A0003A0EE66E010EE66E75EC00F0146E060E61
:1009B000E15E14505D0EE66E010EE66E15DCE5524A
:1009C000E552F00E80140101596F5A6BF00E59195F
:1009D00001E15A5134E05B51591902E15C515A1955
:1009E0002EE059C15BF15AC15CF1700E591901E159
:1009F0005A511CE0B00E591901E15A510FE0D00EC6
:100A0000591901E15A5108E0E00E591901E15A5112
:100A100001E014D05DDC12D063DC10D06FDC01018A
:100A2000E16B0101010E686FB76F08D09CDC01011A
:100A3000E16B0101010E686FB76F00D007D0F00EB7
:100A4000591901E15A5102E15B6B5C6B0101DE0552
:100A500053E1DE6B010161515F1902E162516019DE
:100A60004BE060516219E8AE02D0623504D06151AA
:100A70005F5D625160591EE25D2B040EE76E5D19E9
:100A8000E8AE02D0E73402D0E7505D5D01E35D6B74
:100A90005DC1E9FFEA6AE9BEEA68E20EE926010EF5
:100AA000EA22EFCF5EF1030E5F27000E60230F0EE8
:100AB0005E158A6E62516019E8AE02D0603504D0CE
:100AC0005F51615D6051625917E25D075D3502E378
:100AD000030E5D6F5DC1E9FFEA6AE9BEEA68E20EF6
:100AE000E926010EEA22EFCF5EF1030E5F5F000EF2
:100AF000605B0F0E5E158A6E0101DF0502E013EFE9
:100B00000BF0DF6B020EDB6A030EDB6A020EDBCF3B
:100B100014F0030EDBCF15F0D890155004E6030E49
:100B2000145C000E155802E301EF0AF0020EDBCF51
:100B3000E6FF4FEC00F0E552F3CF18F0F4CF19F0D8
:100B4000020EDBCFE9FF030EDBCFEAFF1D0EEA0248
:100B5000F3CFEAFFE902F3CFE9FFF450EA26000EF3
:100B6000E926010EEA22E9CF14F0EACF15F0020ED1
:100B7000DBCFE9FF030EDBCFEAFF1D0EEA02F3CF66
:100B8000EAFFE902F3CFE9FFF450EA26000EE92676
:100B9000010EEA221A0EE926000EEA22EECF16F026
:100BA000EFCF17F0D8901636173614501624E96E8A
:100BB00015501720EA6E18C0EEFF19C0EDFF020EA7
:100BC000DBCFE9FF030EDBCFEAFF1D0EEA02F3CF16
:100BD000EAFFE902F3CFE9FFF450EA26000EE92626
:100BE000010EEA221A0EE926000EEA22EE2AEF2270
:100BF000020EDBCFE9FF030EDBCFEAFF1D0EEA0298
:100C0000F3CFEAFFE902F3CFE9FFF450EA26000E42
:100C1000E926010EEA221A0EE926000EEA22EECF9C
:100C200014F0EFCF15F0D890155004E60A0E145CBE
:100C3000000E155832E3020EDBCFE9FF030EDBCFC7
:100C4000EAFF1D0EEA02F3CFEAFFE902F3CFE9FF64
:100C5000F450EA26000EE926010EEA221A0EE926D1
:100C6000000EEA22EE6AED6A020EDBCFE9FF030E08
:100C7000DBCFEAFF1D0EEA02F3CFEAFFE902F3CF72
:100C8000E9FFF450EA26000EE926010EEA221C0EC6
:100C9000E926000EEA22010EEF6E020EDBCFE9FF1D
:100CA000030EDBCFEAFF1D0EEA02F3CFEAFFE902F3
:100CB000F3CFE9FFF450EA26000EE926010EEA22FE
:100CC0001C0EE926000EEA22EF5001E193D3040E38
:100CD000DB6A050EDB6A060EDB6A070EDB6A080EAE
:100CE000DB6A090EDB6A0A0EDB6A0B0EDB6ADE6A60
:100CF000DD6ADECF14F0DDCF15F0D890155004E694
:100D00000A0E145C000E155842E2020EDBCFE9FF1A
:100D1000030EDBCFEAFF1D0EEA02F3CFEAFFE90282
:100D2000F3CFE9FFF450EA26000EE926010EEA228D
:100D3000E9CF18F0EACF19F0020E086E096ADECF8B
:100D40000DF0DDCF0EF0D0EC12F018500624E96E55
:100D500019500720EA6EEECF14F0EFCF15F0166AA7
:100D6000176A15AE02D016681768D950080FE96ED9
:100D7000DACFEAFF1450EE261550EE221650EE227E
:100D80001750EE22DF2A010E01E3DB2AB2D7080E4C
:100D9000DBCF14F0090EDBCF15F00A0EDBCF16F017
:100DA0000B0EDBCF17F00A0E0B6E0C6A0D6A0E6A83
:100DB00014C006F015C007F016C008F017C009F0FF
:100DC0009CEC12F006C014F007C015F008C016F035
:100DD00009C017F0020EDBCFE9FF030EDBCFEAFFFD
:100DE0001D0EEA02F3CFEAFFE902F3CFE9FFF45068
:100DF000EA26000EE926010EEA22140EE926000E6C
:100E0000EA2214C0EEFF15C0EDFF020EDBCFE9FFB2
:100E1000030EDBCFEAFF1D0EEA02F3CFEAFFE90281
:100E2000F3CFE9FFF450EA26000EE926010EEA228C
:100E3000140EE926000EEA22EECF18F0EFCF19F0DB
:100E400018C008F019C009F032EC11F007C014F016
:100E500008C015F009C016F00AC017F0520E0C6E4B
:100E6000490E0D6E9D0E0E6E3B0E0F6E14C007F0F8
:100E700015C008F016C009F017C00AF098EC11F080
:100E8000040E07C0DBFF050E08C0DBFF060E09C01D
:100E9000DBFF070E0AC0DBFF020EDBCF08F0030EFC
:100EA000DBCF09F0020E081801E1095001E1D5D1AC
:100EB000010E081801E1095001E100D1085001E1DB
:100EC000095001E097D2CD0E146ECC0E156E166E41
:100ED0003E0E176ED950040FE96EDACFEAFFEECF5F
:100EE00007F0EECF08F0EECF09F0EFCF0AF014C014
:100EF0000CF015C00DF016C00EF017C00FF005EC89
:100F000012F00AC0EDFF09C0EDFF08C0EDFF07C0F9
:100F1000EFFF040EDBCF16F0050EDBCF17F0060E49
:100F2000DBCF18F0070EDBCF19F00A0E0C6ED70ED0
:100F30000D6E230E0E6E3C0E0F6E16C007F017C01E
:100F400008F018C009F019C00AF045EC11F0FDECEA
:100F500012F008C014F009C015F0020EDBCFE9FF53
:100F6000030EDBCFEAFF1D0EEA02F3CFEAFFE90230
:100F7000F3CFE9FFF450EA26000EE926010EEA223B
:100F8000140EE926000EEA2214C0EEFF15C0EDFF94
:100F9000020EDBCFE9FF030EDBCFEAFF1D0EEA02F4
:100FA000F3CFEAFFE902F3CFE9FFF450EA26000E9F
:100FB000E926010EEA22140EE926000EEA22EECFFF
:100FC00014F0EFCF15F0020EDBCFE9FF030EDBCFFD
:100FD000EAFF1D0EEA02F3CFEAFFE902F3CFE9FFD1
:100FE000F450EA26000EE926010EEA22160EE92642
:100FF000000EEA22EECF16F0EFCF17F017501518BB
:10100000E8AE02D0153404D01450165C15501758B1
:1010100008E28B828B948B865A0E0101616F626BA2
:101020004CD0020EDBCFE9FF030EDBCFEAFF1D0E33
:10103000EA02F3CFEAFFE902F3CFE9FFF450EA2630
:10104000000EE926010EEA22140EE926000EEA221D
:10105000EECF14F0EFCF15F0020EDBCFE9FF030E59
:10106000DBCFEAFF1D0EEA02F3CFEAFFE902F3CF7E
:10107000E9FFF450EA26000EE926010EEA22180ED6
:10108000E926000EEA22EECF16F0EFCF17F015504A
:101090001718E8AE02D0173404D01650145C17505D
:1010A000155808E28B928B848B86060E0101616FC6
:1010B000626B03D08B928B948B969CD1040EDBCF0A
:1010C00016F0050EDBCF17F0060EDBCF18F0070E7B
:1010D000DBCF19F0CD0E0C6ECC0E0D6E4C0E0E6EDD
:1010E0003D0E0F6E16C007F017C008F018C009F0CB
:1010F00019C00AF045EC11F0FDEC12F008C014F034
:1011000009C015F0020EDBCFE9FF030EDBCFEAFFCB
:101110001D0EEA02F3CFEAFFE902F3CFE9FFF45034
:10112000EA26000EE926010EEA22140EE926000E38
:10113000EA2214C0EEFF15C0EDFF020EDBCFE9FF7F
:10114000030EDBCFEAFF1D0EEA02F3CFEAFFE9024E
:10115000F3CFE9FFF450EA26000EE926010EEA2259
:10116000140EE926000EEA22EECF14F0EFCF15F0B0
:10117000020EDBCFE9FF030EDBCFEAFF1D0EEA0212
:10118000F3CFEAFFE902F3CFE9FFF450EA26000EBD
:10119000E926010EEA22160EE926000EEA22EECF1B
:1011A00016F0EFCF17F017501518E8AE02D015342F
:1011B00004D01450165C1550175806E28B98420E56
:1011C0000101616F626B48D0020EDBCFE9FF030EB5
:1011D000DBCFEAFF1D0EEA02F3CFEAFFE902F3CF0D
:1011E000E9FFF450EA26000EE926010EEA22140E69
:1011F000E926000EEA22EECF14F0EFCF15F0020E32
:10120000DBCFE9FF030EDBCFEAFF1D0EEA02F3CFCF
:10121000EAFFE902F3CFE9FFF450EA26000EE926DF
:10122000010EEA22180EE926000EEA22EECF16F091
:10123000EFCF17F015501718E8AE02D0173404D0CE
:101240001650145C1750155806E28B880C0E0101DD
:10125000616F626B01D08B98CDD0040EDBCF16F09E
:10126000050EDBCF17F0060EDBCF18F0070EDBCF35
:1012700019F0EB0E0C6E500E0D6EB50E0E6E390E93
:101280000F6E16C007F017C008F018C009F019C09B
:101290000AF045EC11F0FDEC12F008C014F009C0A2
:1012A00015F0020EDBCFE9FF030EDBCFEAFF1D0EC8
:1012B000EA02F3CFEAFFE902F3CFE9FFF450EA26AE
:1012C000000EE926010EEA22140EE926000EEA229B
:1012D00014C0EEFF15C0EDFF020EDBCFE9FF030ED9
:1012E000DBCFEAFF1D0EEA02F3CFEAFFE902F3CFFC
:1012F000E9FFF450EA26000EE926010EEA22140E58
:10130000E926000EEA22EECF14F0EFCF15F0020E20
:10131000DBCFE9FF030EDBCFEAFF1D0EEA02F3CFBE
:10132000EAFFE902F3CFE9FFF450EA26000EE926CE
:10133000010EEA22160EE926000EEA22EECF16F082
:10134000EFCF17F017501518E8AE02D0153404D0BF
:101350001450165C1550175806E28B86090E0101D1
:10136000616F626B46D0020EDBCFE9FF030EDBCF6D
:10137000EAFF1D0EEA02F3CFEAFFE902F3CFE9FF2D
:10138000F450EA26000EE926010EEA22140EE926A0
:10139000000EEA22EECF14F0EFCF15F0020EDBCFF5
:1013A000E9FF030EDBCFEAFF1D0EEA02F3CFEAFFEF
:1013B000E902F3CFE9FFF450EA26000EE926010E18
:1013C000EA22180EE926000EEA22EECF16F0EFCF41
:1013D00017F015501718E8AE02D0173404D0165085
:1013E000145C1750155805E28B865A0E0101616F87
:1013F000626B00D0020EDB2A030E01E3DB2A86EFCC
:1014000005F00101685101E10CD1050E0101E76E03
:10141000E119E8AE02D0E13503D0E750D880E155BC
:1014200001E2FFD00101575101E17ED058C1E9FF2F
:10143000EA6AE9BEEA681D0EEA02F3CFEAFFE902B2
:10144000F3CFE9FFF450EA26000EE926010EEA2266
:10145000160EE926000EEA22EECFE6FFEFCFE6FFFA
:1014600057C114F0156A14BE156814C0E6FF15C004
:10147000E6FF58C116F0176A16BE176816C0E6FFD9
:1014800017C0E6FFE50EE66E030EE66E010EE66E91
:10149000E66A6B0E186E270E196E1A6A18C0E6FF00
:1014A00019C0E6FF1AC0E6FFBA0EE66E010EE66E40
:1014B00074EC14F01B6E0F0EE15E1B50BA0EE66E5C
:1014C000010EE66EE8EC01F0E552E552146E156A85
:1014D00014BE156814C0E6FF15C0E6FFBA0EE66E2E
:1014E000010EE66E640E166E270E176E186A16C091
:1014F000E6FF17C0E6FF18C0E6FFBA0EE66E010E63
:10150000E66E74EC14F0196E090EE15E19500101DB
:10151000B70509E1B76BBA0EE66E010EE66E12EC86
:1015200016F0E552E5527DD058C1E9FFEA6AE9BEFE
:10153000EA681D0EEA02F3CFEAFFE902F3CFE9FF02
:10154000F450EA26000EE926010EEA22180EE926DA
:10155000000EEA22EECFE6FFEFCFE6FF57C114F010
:10156000156A14BE156814C0E6FF15C0E6FF58C121
:1015700016F0176A16BE176816C0E6FF17C0E6FF1A
:10158000E50EE66E030EE66E010EE66EE66A6B0E83
:10159000186E270E196E1A6A18C0E6FF19C0E6FF0A
:1015A0001AC0E6FFBA0EE66E010EE66E74EC14F099
:1015B0001B6E0F0EE15E1B50BA0EE66E010EE66E5C
:1015C000E8EC01F0E552E552146E156A14BE156898
:1015D00014C0E6FF15C0E6FFBA0EE66E010EE66E19
:1015E000640E166E270E176E186A16C0E6FF17C037
:1015F000E6FF18C0E6FFBA0EE66E010EE66E74EC6A
:1016000014F0196E090EE15E19500101B70509E1E8
:10161000B76BBA0EE66E010EE66E12EC16F0E552EE
:10162000E5520BEC02F0E1EF04F00C0EE15C02E29B
:0E163000E16AE552E16EE552E7CFD9FF120004
:02163E005BEC63
:1016400010F0FB0EDBCFF3FFDB06F35000090AE0DE
:10165000A9EC10F0FA0E14EC11F0F3E1151CF1E115
:10166000010E01D0000E8AEF10F05BEC10F03B0E83
:10167000E12402E3E168E652E16E010EDB6A020E4C
:10168000DB6AF90EDBCFF6FFFA0EDBCFF7FFFB0EBE
:10169000DBCFF8FF0800F550DF6EDF5002E1AEEF60
:1016A0000FF0250EDF5C02E0A1EF0FF0030EDB6A06
:1016B000040EDB6A050EDB6A060EDB6A070EDB6AC8
:1016C000C3EC0FF02D0EDF5C0CE02B0EDF5C09E0AD
:1016D000200EDF5C06E0230EDF5C03E0300EDF5CF3
:1016E0001AE1DF50300A14E0130A0FE0030A0AE09F
:1016F0000B0A05E0060AE4E1030EDB80E1D7030EE6
:10170000DB82DED7030EDB84DBD7030EDB86D8D784
:10171000030EDB88D5D72A0EDF5C1BE1BFEC0FF090
:101720000DEC10F010E0030EDB8008680968130E62
:10173000DBCF0DF0140EDBCF0EF0D0EC12F0040E68
:1017400006C0DBFF03D0130EF6EC0FF0C3EC0FF076
:101750000BD0090EDB6A64EC10F003E0D8EC10F05B
:10176000FAD7090EF6EC0FF0030EDBB0DB982E0E65
:10177000DF5C1BE1C3EC0FF02A0EDF5C0BE1BFEC7A
:101780000FF00DEC10F003E1130E48EC10F0C3EC79
:101790000FF00BD0090EDB6A64EC10F003E0D8EC1C
:1017A00010F0FAD7090E48EC10F0680EDF5C07E184
:1017B000C3EC0FF0680EDF5C1DE1030E18D0740E51
:1017C000DF5C17E07A0EDF5C14E0480EDF5C06E0B9
:1017D000540EDF5C03E05A0EDF5C02E1020E07D01C
:1017E0006C0EDF5C03E06A0EDF5C04E1010E9BEC33
:1017F00010F0C9DBDF506E0A01E17FD31E0A01E160
:1018000092D1200A01E18FD13F0A01E149D11A0AA0
:1018100001E146D10D0A01E143D1200A01E140D1A5
:101820003A0A01E13DD1200A01E13AD1260A01E15B
:1018300035D10D0A01E132D11A0A01E1D9D0200ACD
:101840004AE0300A1FE0460A0EE0250A01E083D391
:10185000D950F90FE96EFF0EDA20EA6E010EEE5E46
:10186000000EEE5AEE5AA9EC10F0250EE66E95DB4E
:1018700003E1151C01E169D3A5EC10F001E26BD383
:10188000DB2A69D3080EDB6A040EDB50010806E28E
:10189000040EDB046DEC10F0DB508BDB080EDB502C
:1018A00009E0030EDB50010B05E172DB01E04DD3D3
:1018B000080EDB6A64DBEFCFDFFF1DEC11F003E104
:1018C000151C01E142D3A5EC10F001E3DB2A60DB3B
:1018D00001E141D33AD3070EDB5002080FE1E9ECF6
:1018E00010F0030EB0EC10F00E0EEECFDBFF0F0E7B
:1018F000EECFDBFF100EEECFDBFF20D0F70EDBCFFD
:1019000017F0F80EDBCF18F0020E175E000E185A13
:10191000F70E17C0DBFFF80E18C0DBFF17C0E9FF9A
:1019200018C0EAFFA0EC10F0166A0E0E14C0DBFF20
:101930000F0E15C0DBFF100E16C0DBFF0E0EDBCF47
:10194000E6FF0F0EDBCFE6FF100EDBCFE6FFEDEC80
:1019500015F0E552E552E552130E07C0DBFF140EF9
:1019600008C0DBFF060EDB5005E0130EE4EC10F0C0
:1019700001E26ADB08EC11F002E2130E37DBCBEC7C
:1019800010F006E0040EE4EC10F002E2050E2EDB8F
:10199000030EDBB005D0FCDA01E0D7D2080EDB6A1B
:1019A000090EDB6A0E0EDBCFF6FF0F0EDBCFF7FF63
:1019B000100EDBCFF8FF0800F550DF6EDF5014E0AB
:1019C0000EEC11F011E21DEC11F003E1151C01E128
:1019D000BCD2BBDB01E3DB2A090EDB2AD9500E0F98
:1019E000E96E000ECBDBE7D7D3DA01E1B4D2ADD29A
:1019F000C6DA110EEECFDBFF120EEDCFDBFF110EBC
:101A0000DBCFE6FF120EDBCFE6FFDFEC15F0E55291
:101A1000E552130EF3CFDBFF140EF4CFDBFF060EFF
:101A2000DB5004E0130ED0DB01E20EDB08EC11F01A
:101A300002E2130EDBDAAFDB05E0040EC5DB02E2E7
:101A4000050ED4DA030EDBB005D0A2DA01E07DD2B8
:101A5000080EDB6A090EDB6A110EDBCFE9FF120EFE
:101A6000DBCFEAFFEFCFDFFFDF5014E0D7DB12E27E
:101A7000E4DB03E1151C01E168D267DB01E3DB2A4B
:101A8000090EDB2A110EDB2ADBCFE9FF120EE8E399
:101A9000DB2AE6D77DDA01E15ED257D2030EDB8E78
:101AA000070EDB0410E195DB040E5ADB0A0EEECFC5
:101AB000DBFF0B0EEECFDBFF0C0EEECFDBFF0D0ED0
:101AC000EECFDBFF6CD0070EDB5003082CE1030EDA
:101AD000DBAE0DD0B2DA020E76DAEFCF14F0156A73
:101AE000166A176A14AE39D01568166835D0F70E25
:101AF000DBCF15F0F80EDBCF16F0020E155E000EF0
:101B0000165AF70E15C0DBFFF80E16C0DBFF15C026
:101B1000E9FF16C0EAFFEFCF14F00A0E14C0DBFF96
:101B20000B0EDB6A38D0070EDB50020809E1030E0A
:101B3000DBAE04D059DB16AE10D00ED055DB0DD085
:101B4000030EDBAE12D079DA020E3DDAF9DA166A4C
:101B5000176A15AE02D016681768E2DA0C0E16C0C6
:101B6000DBFF0D0E17C0DBFF1AD0F70EDBCF16F030
:101B7000F80EDBCF17F0020E165E000E175AF70EA6
:101B800016C0DBFFF80E17C0DBFF16C0E9FF17C059
:101B9000EAFFD6DAC5DA0C0EDB6A0D0EDB6A060E3A
:101BA000DB5005E1010EF36E050EF3CFDBFF150EE2
:101BB000DB6A160EDB6AD950370F146E000EDA207E
:101BC000156E390E14C0DBFF3A0E15C0DBFF380E60
:101BD000DB6A080EDB6A0A0EAEDADF50780A12E022
:101BE000200A10E0280A0CE0200A0AE03F0A06E07A
:101BF0000D0A02E0200A08E1020E05D0080E03D00B
:101C0000080EDF26100E97DA030EDBBE02D0DB9241
:101C1000DB94DB50800B24E08ADAD890030EEB5083
:101C2000000A08E6000EEE5C000EEE58000EEE58BC
:101C3000000EEE5815E213DA0B680C680D680E689A
:101C4000A7EC15F00A0E02C0DBFF0B0E03C0DBFF92
:101C50000C0E04C0DBFF0D0E05C0DBFF2D0E08D0FF
:101C6000030EDBA202D02B0E03D0DBA408D0200E83
:101C7000F36E170EF3CFDBFF150EDB2A02D0170E23
:101C8000DB6A050EDB5003E1B7D901E189D0620EB2
:101C9000146E2D0E156E000E166E070EDBCF17F0AC
:101CA000186A196A1A6A17C00BF018C00CF019C02C
:101CB0000DF01AC00EF0D3D938EC16F014500224EF
:101CC000F36E15500320F46E16500420F86EF4CF16
:101CD000F7FFF3CFF6FF0800090EF5CFDBFF580E34
:101CE000DF5C0FE1610EF36E090E7BD90AE3200E73
:101CF000146E090EDBCFE7FF1450E75E090EE7CF45
:101D0000DBFF070EDBCF14F0156A166A176A0FDACD
:101D100014C00BF015C00CF016C00DF017C00EF07B
:101D2000EECF06F0EECF07F0EECF08F0EFCF09F0E0
:101D300038EC16F009C0EDFF08C0EDFF07C0EDFF5D
:101D400006C0EFFF390EDBCFE9FFDB063A0EDBCF33
:101D5000EAFF01E2DB06090EDBCFEFFF150EDB2AFF
:101D60004BD995E1030EDBA61DD06F0EDF5C06E1BB
:101D7000C1D918E3150EDB285BDA14D0780EDF5CCE
:101D800009E0580EDF5C06E0620EDF5C03E0420E05
:101D9000DF5C08E1020EF36E160EF3CFDBFF02D01C
:101DA000150EDB6A030EDB50100B0EE0040EDBCFCA
:101DB00014F0050EDB50D880145406E2060EDB50FA
:101DC00003E1040EDB5034DA95D90AE2050EDBCFCD
:101DD000E7FF150EDB50E75E050EE7CFDBFF02D015
:101DE000050EDB6A040EDBCF14F0160E45D9D88041
:101DF000145414E2160EDBCFE6FF150EDBCFE6FF20
:101E0000040EDBCFE6FF050EDB50E552E75CE55242
:101E1000D880E754E552D880E7545FD9030EDB50F1
:101E2000010B0BE1080EDB5008E0B2D801E08DD0C9
:101E3000080EDB50BED8080EDB6A170EDB5007E039
:101E400088D9170EF1D903E1151C01E17ED0160ED9
:101E5000DB5016E07ED9300EE66E9FD802E1151CED
:101E600074E077D9DFCFE6FF65EC15F0E552E55277
:101E7000E552F4CF15F00001F31C02E1151C65E0FA
:101E8000050EDBCF14F0160EDB50D880145409E297
:101E9000050EDBCFE7FF160EDB50E75E050EE7CF42
:101EA000DBFF300EE66E050ECBD94FE1390EDB2A93
:101EB000DBCFE9FF3A0E01E3DB2ADBCFEAFF090EB5
:101EC000EFCFDBFFDB500EE044D9090EADD902E1C4
:101ED000151C3BE0390EDB2ADBCFE9FF3A0EEDE3C0
:101EE000DB2AEBD755D831E1160EDBCFE6FF080E23
:101EF000C3D8E552E7245DD82ED0070EDB50030A85
:101F00001CE0010A14E0030A07E07BD9DBCFEEFFF7
:101F1000020EDBCFEDFF1FD0F5D8196A17AE02D045
:101F2000186819682CD8BCD819C0EEFF14D0EAD8AC
:101F300017BE186824D8B4D80ED063D9DBCFEFFF12
:101F40000AD07BD905E1151C03E1F368F46810D0D1
:101F5000FCD801E3DB2A79D94AEF0BF0010EDBCF85
:101F600014F0020EDBCF15F014C0F3FF15C0F4FF20
:101F70003B0EE15C02E2E16AE552E16ECBD029D989
:101F8000020EB0EF10F061D90800F550DF6E1200BC
:101F9000200EE66E080E20EF11F065EC15F0E5520C
:101FA000E552E552F3CF14F0F4CF15F00001F31C25
:101FB0001200146E156AD950010F4DD91450EE2637
:101FC0001550ED221200185E000E195AF70E18C0B7
:101FD000DBFFF80E19C0DBFF18C0E9FF19C0EAFFEC
:101FE0001200DBCFF4FFF350F45C1200DB50E76E1D
:101FF000040EE7CFDBFF12000A0EDBCF14F00B0E4E
:10200000DBCF15F00C0EDBCF16F00D0EDBCF17F08B
:1020100014501510161017101200130EEECFDBFF20
:10202000140EEDCFDBFF130EDBCF14F0140EDBCF5D
:1020300015F00001800E15141200F70EDBCF18F01A
:10204000F80EDBCF19F01200050EDB50E66ED9500A
:10205000130F01D9E552E750EE6EED6A12000A0E39
:10206000DBCF06F00B0EDBCF07F00C0EDBCF08F05A
:102070000D0EDBCF09F01200DBCFE6FF150EDBCF34
:10208000E6FF050EDB50E552E724E552E724120097
:10209000DB50CED8010EF36E060EF3CFDBFF12003D
:1020A000EE50EFCFEAFFE96E16C0EEFF17C0EEFF6D
:1020B00018C0EEFF1200D9CFE6FFDACFE6FFE1CF7E
:1020C000D9FFE2CFDAFF1200DFCFE6FFE66A73EC5A
:1020D00016F0E552E552F3501200E76E080EE7CF16
:1020E000DBFF1200EECF14F0EECF15F0EFCF16F0BD
:1020F000176A1200050EDBCF14F0150EDB50D880E6
:1021000014541200010EDBCF16F0020EDBCF17F0D5
:10211000186A1200E552E5CFDAFFE7CFD9FF1200C7
:102120000A0E14C0DBFF0B0E15C0DBFF1200D950E6
:102130000A0F2BEF11F0F36E070EF3CFDBFF120047
:10214000EECF14F0EFCF15F01200010EDB2A020ED5
:102150001200FC0EDBCFE6FFFD0EDBCFE6FF120028
:10216000145E000E155AF70E14C0DBFFF80E15C0F2
:10217000DBFF14C0E9FF15C0EAFF1200DA20EA6EA7
:10218000EF2AEECFF6FF000EEF22EECFF7FFEF22A1
:10219000EECFF8FF1200040EDBCFE6FF130EDB508C
:1021A000E552E75C9ADFDB5004DF060EDB501200DD
:1021B000090EDB500A0DF350DF24D00FE76E090E35
:1021C000E7CFDBFFC3EF0FF0DB50F36E050EF1EF4F
:1021D0000FF0F70EDBCF14F0F80EDBCF15F0120086
:1021E000DFCFE6FFCDEF0FF028DF030EECDE72EF5E
:1021F00010F01FEC0BF0E552E552E552E5520009F4
:102200001200BDDEEE50EFCFEAFFE96E010E1200C4
:10221000130EDB50F36E040EF1EF0FF0040EDB50E3
:10222000F36E090EF1EF0FF0DBCFE6FFCDEF0FF00D
:10223000E76E050EE7CFDBFF12008BDFF0EF10F04B
:10224000DBCFE6FF86DFF9EF10F0D950F90FE96E2A
:10225000FF0EBEEF10F0E96E000EDA20EA6E1200FB
:10226000019E08D0019E09AE05D0086C091EE86ADF
:102270000922018E09C003F008C002F0136A126A35
:102280008E0E046E056A48EF13F0016A84EC13F0B9
:102290009CEC13F001B62CEF13F001A205D001BAAB
:1022A0002CEF13F033EF13F001BA3FEF13F001A05E
:1022B00005D001B82CEF13F03FEF13F001B833EF66
:1022C00013F0056A7F0E0A24046EE86A05220F5097
:1022D000045EE86A055A1A0E106E0A6A126A136AD8
:1022E000026A036A0C50075E0D50085A0E50095AD4
:1022F000000E0A5A09E70C5007260D5008220E500E
:102300000922000E0A2201D0128AD8900736083618
:1023100009360A36D8901236133602360336102E96
:10232000E1D7095008100710D8A4128A48EF13F01B
:10233000016A84EC13F09CEC13F001B62CEF13F05F
:1023400001A205D001B82CEF13F033EF13F001AA6E
:1023500005D001B02CEF13F033EF13F001B002D031
:1023600001A802D03FEF13F0056A0F500A24046E53
:10237000E86A05227E0E045EE86A055A126A136A4C
:10238000026A036A0E500902F4CF03F0F3CF02F0A1
:102390000D500902F3501326F4500222000E0322BE
:1023A0000E500802F3501326F4500222000E0322AE
:1023B0000C500902F3501226F4501322000E022290
:1023C00003220D500802F3501226F4501322000E7F
:1023D000022203220E500702F3501226F450132259
:1023E000000E022203220C500802F4501226000EA6
:1023F0001322022203220D500702F4501226000E6F
:1024000013220222032248EF13F00F7E016A84ECAC
:1024100013F09CEC13F001B62CEF13F001A20AD0DC
:1024200001AA03D001BE2CEF13F001A438EF13F082
:1024300035EF13F001AA05D001AC38EF13F035EFFA
:1024400013F001A00AD001A808D001BE04D001A455
:1024500002D041EF13F045EF13F0126A056A0F50F6
:102460000A5C116E10E307C013F008C002F009C047
:1024700003F00AC010F00CC007F00DC008F00EC049
:1024800009F0013A09D00CC013F00DC002F00EC0E3
:1024900003F00FC010F0116C019E01BC018E10C042
:1024A00004F001B074EF13F01A0E116074EF13F022
:1024B000046A0A6A01A408D0076C081E091E0A1ED5
:1024C000E86A082209220A2201AC08D0136C021E15
:1024D000031E041EE86A022203220422066A115225
:1024E00007E00A340932083207320632112EF9D7D2
:1024F0000750132608500222095003220A500422D2
:1025000006C012F0019E04AE0BD0126C131E021E08
:10251000031E041EE86A1322022203220422018EF3
:1025200004A006D0D8800332023213321232102AAD
:1025300010C004F048EF13F0006AE86A0EAEA9EF8D
:1025400012F00B6C0C1E0D1E0E1E0C220D220E2204
:10255000001E09AEB4EF12F0066C071E081E091E1D
:10256000072208220922001E38EC16F009BECBEF24
:1025700012F000AE000C066C071E081E091EE86A69
:10258000072208220922026C031E041E051E0322D4
:1025900004220522000C00BEBBEF12F00188FF0CE4
:1025A00009C013F008C012F008500D02F4CF07F074
:1025B000F3CF06F009500E02F4CF09F0F3CF08F084
:1025C0000D02F3500726F4500822E86A092212503F
:1025D0000E02F3500726F4500822E86A09220EAED4
:1025E000F6EF12F01250085E1350095A13AE000CA9
:1025F0000D50085E0E50095A000C016A84EC13F06D
:1026000001B607EF13F001A20ED001B405D07F0E82
:10261000096EFF0E086E1FD0800E096E086A1BD06F
:10262000096A086A18D001B0FBD78F0E0A60EDD78F
:102630007E0E0A64F5D78E0E0A5C05E0D89009324A
:1026400008320A2AF8D701A406D0086C091EE86AE5
:10265000092209AEE5D712007F0E0A6EFF0E096E41
:10266000086E076E12007F0E01BEFF0E0A6E02D0CA
:102670007F0E0A6E800E096E086A076AF3D701AEF4
:1026800004D0800E0A6E096AF7D70A6A096AF4D77D
:102690000350021013101210F8E005BEF0D703BE6D
:1026A0000CD004500510EBE0D890123613360236E9
:1026B00003360406D8A00506F2D70550D4E1042855
:1026C000D2E012AE11D07F0E121402E113A00CD092
:1026D000132AE86A0222032207E3D8800332023277
:1026E0001332042A0428BFE00450C9E013C007F0E5
:1026F00002C008F00334096E04300A6E09320A9EE3
:1027000001BE0A8E32EF13F009360A3602E3018465
:10271000017E06E101800A6A096A086A076A1200F6
:102720000A2803E0D88009321200D890093202E169
:1027300001821200018612000E360F3602E3018C70
:10274000017E06E101880F6A0E6A0D6A0C6A1200AA
:102750000F2803E0D8800E321200D8900E32EAE142
:04276000018A1200D8
:0C27640025732C25640D0024434F4E4CBF
:10277000494D2C25642C25642C25642C25642C259E
:102780006400257300446174612070617474657223
:102790006E3D307825780053657420706F736974CE
:1027A000696F6E3D256409094375727220706F73FD
:1027B0006974696F6E3D25640056656E7400095337
:1027C0007072696E6B6C65723A204C6F77000953BA
:1027D0007072696E6B6C65723A2048696768004C6C
:1027E00069676874696E673A204C6F77004C696757
:1027F0006874696E673A2048696768000946414E07
:102800003A204C6F77000946414E3A204869676884
:102810000009436F6F6C65723A204C6F7700094373
:102820006F6F6C65723A204869676800486561742B
:1028300065723A204C6F77004865617465723A2082
:1028400048696768004C4C3D2532644309094C4C8B
:102850003D253264252509094C4C3D2532647070B4
:102860006D00484C3D253264430909484C3D2532F2
:102870006425250909484C3D25326470706D0900B6
:1028800054656D703D2564430948756D643D25644C
:10289000252509434F323D25326470706D000A0AC8
:1028A0000D00094D6F64653A204C6F7700094D6F3C
:1028B00064653A2048696768004368616E6E656CBC
:1028C0003A202564000A0D001B5B324A1B5B48530B
:1028D000656E736F722073797374656D203A203161
:0828E0003139313937370A00A4
:0828E800D9CFE6FFDACFE6FFCD
:1028F000E1CFD9FFE2CFDAFFE652E652E652E652E6
:10290000D950F90F146EFF0EDA20156E020E14C0A6
:10291000DBFF030E15C0DBFF020EDBCFE6FF030E6D
:10292000DBCFE6FFF90EDBCFE6FFFA0EDBCFE6FFEB
:10293000FB0EDBCFE6FFD950FC0FE66EFF0EDA2070
:10294000E66E35EC0BF0146E070EE15C02E2E16A14
:10295000E552E16E1450F3CFDEFFF4CFDDFFFC0E45
:10296000DBCFE9FFFD0EDBCFEAFFEF6ADECF14F02D
:10297000DDCF15F014C0F3FF15C0F4FF040EE15CC9
:1029800002E2E16AE552E16EE552E5CFDAFFE7CF18
:04299000D9FF120059
:0C2994000E0EF66E000EF76E000EF86ED0
:1029A00001010900F550F36F0900F550F46F03E1E0
:1029B000F36701D03DD00900F550EE6F0900F550E6
:1029C000EF6F0900F550F06F09000900F550E96E4E
:1029D0000900F550EA6E090009000900F550F16F91
:1029E0000900F550F26F09000900F6CFF5F1F7CFB5
:1029F000F6F1F8CFF7F1EEC1F6FFEFC1F7FFF0C146
:102A0000F8FF0101F15302E1F25307E00900F5502C
:102A1000EE6EF107F8E2F207F9D7F5C1F6FFF6C15D
:102A2000F7FFF7C1F8FF0101F307000EF45BBFD712
:022A3000120092
:0E2A3200D9CFE6FFDACFE6FFE1CFD9FFE2CF42
:102A4000DAFFE652E652E652E652D950FB0F146E18
:102A5000FF0EDA20156E14C0DEFFDD6EDECFE6FF5E
:102A6000DDCFE6FFFB0EDBCFE6FFFC0EDBCFE6FFA4
:102A7000FD0EDBCFE6FFF8C1E6FFF9C1E6FF35EC5E
:102A80000BF0146E070EE15C02E2E16AE552E16EC2
:102A90001450020EF3CFDBFF030EF4CFDBFF020E68
:102AA000DBCF14F0030EDBCF15F014C0F3FF15C01D
:102AB000F4FF040EE15C02E2E16AE552E16EE552E8
:0A2AC000E5CFDAFFE7CFD9FF1200DF
:062ACA00D9CFE6FFDACFD0
:102AD000E6FFE1CFD9FFE2CFDAFFFB0EDBCF14F048
:102AE000FC0EDBCF15F00001800E15141AE1FB0E71
:102AF000DBCFE9FFFC0EDBCFEAFFEECFF3FFEDCF3C
:102B0000F4FFEE2A000EEF22F3CFE9FFF4CFEAFF45
:102B1000FD0EDBCFEFFFEF50156AF36E15C0F4FF2B
:102B200010D0FB0EDB50FE0806E1FD0EDBCFE6FF0A
:102B3000A3EC16F005D0FD0EDBCFE6FF03EC00F0B2
:0E2B4000E552E552E5CFDAFFE7CFD9FF1200EC
:022B4E0006502F
:102B50000B02F3CF02F0F4CF03F00C02F350032684
:102B6000000EF420046E06500D02F3500426000EF1
:102B7000F420056E06500E02F350052607500B0296
:102B8000F3500326F4500422000E052207500C02D5
:102B9000F3500426F450052207500D02F350052689
:102BA00008500B02F3500426F450052208500C0282
:0E2BB000F350052609500B02F35005261200C3
:022BBE00FE0E09
:102BC000E3CFE9FFFF0EE3CFEAFFF36AF46AEE52C8
:102BD00003E0F34AF42AFBD71200FF0EE3CFF8FF1D
:102BE000E552FF0EE3CFF7FFE552FF0EE3CFF6FF0E
:102BF000E552E66AE66AE66A0900F55209E0FD0E6A
:102C0000E32A05E1FE0EE32A02E1FF0EE32AF4D7F0
:102C1000FD0EE3CF07F0FE0EE3CF08F0FF0EE3CF8B
:042C200009F01200A5
:0C2C2400D9CFE6FFDACFE6FFE1CFD9FF01
:102C3000E2CFDAFF72A2FED7FC0EDBCFE9FFFD0E7A
:102C4000DBCFEAFFEF50E66E5CEC16F0E552FC0ECF
:102C5000DBCFE9FFDB2AFD0EDBCFEAFF01E3DB2A56
:102C6000EF50E8E1E552E5CFDAFFE7CFD9FF1200F8
:102C7000056A046A036A026A200EE76ED890063677
:102C800007360836093602360336043605360B5049
:102C9000025C0C5003580D5004580E50055809E3BF
:102CA0000B50025E0C50035A0D50045A0E50055A38
:082CB000062AE72EE4D712000A
:082CB800D9CFE6FFDACFE6FFF9
:102CC000E1CFD9FFE2CFDAFF72AC04D072900101FC
:102CD000FAB37280FD0EDB50736EE552E5CFDAFF7A
:062CE000E7CFD9FF12004E
:0A2CE600F36AF46AFF0EE124E96EC0
:102CF000FF0EE220EA6EED6607D02F0EEF6404D0DF
:0A2D00003A0EEF6001D0F32A120032
:062D0A00000EF36E00EE66
:102D100000F0060E01D81200EA6002D0EE6AFCD77D
:0A2D2000F350E9601200EE6AFCD7E0
:062D2A0015EE00F025EE9D
:102D300000F0F86A019CCAEC14F0BAEC16F09AECB8
:062D400004F0FBD71200B5
:0A2D4600FF0EE350ACBA04D0AF6AF0
:102D5000AB8EAC8A949CACA2FED7AD6EF36EF46AD7
:022D600012005F
:0E2D62003031323334353637383961626364CC
:032D700065660095
:022D740012004B
:022D7600FEFF5E
:082D7800000000000102040844
:082D800000000000000000004B
:020000040030CA
:0100010028D6
:0100020003FA
:010003003CC0
:01000500BD3D
:010006008178
:00000001FF
